{
    "contractName": "Inbox",
    "abi": [
        {
            "inputs": [
                {
                    "internalType": "string",
                    "name": "initialMessage",
                    "type": "string"
                }
            ],
            "name": "InboxFunc",
            "outputs": [],
            "stateMutability": "nonpayable",
            "type": "function"
        },
        {
            "inputs": [],
            "name": "getMessage",
            "outputs": [
                {
                    "internalType": "string",
                    "name": "",
                    "type": "string"
                }
            ],
            "stateMutability": "view",
            "type": "function"
        },
        {
            "inputs": [],
            "name": "message",
            "outputs": [
                {
                    "internalType": "string",
                    "name": "",
                    "type": "string"
                }
            ],
            "stateMutability": "view",
            "type": "function"
        },
        {
            "inputs": [
                {
                    "internalType": "string",
                    "name": "newMessage",
                    "type": "string"
                }
            ],
            "name": "setMessage",
            "outputs": [],
            "stateMutability": "nonpayable",
            "type": "function"
        }
    ],
    "bytecode": "608060405234801561001057600080fd5b50610390806100206000396000f3fe608060405234801561001057600080fd5b506004361061004c5760003560e01c8063368b877214610051578063ce6d41de146100f9578063e21f37ce14610176578063e309af5f14610051575b600080fd5b6100f76004803603602081101561006757600080fd5b81019060208101813564010000000081111561008257600080fd5b82018360208201111561009457600080fd5b803590602001918460018302840111640100000000831117156100b657600080fd5b91908080601f01602080910402602001604051908101604052809392919081815260200183838082843760009201919091525092955061017e945050505050565b005b610101610195565b6040805160208082528351818301528351919283929083019185019080838360005b8381101561013b578181015183820152602001610123565b50505050905090810190601f1680156101685780820380516001836020036101000a031916815260200191505b509250505060405180910390f35b61010161022b565b80516101919060009060208401906102b9565b5050565b60008054604080516020601f60026000196101006001881615020190951694909404938401819004810282018101909252828152606093909290918301828280156102215780601f106101f657610100808354040283529160200191610221565b820191906000526020600020905b81548152906001019060200180831161020457829003601f168201915b5050505050905090565b6000805460408051602060026001851615610100026000190190941693909304601f810184900484028201840190925281815292918301828280156102b15780601f10610286576101008083540402835291602001916102b1565b820191906000526020600020905b81548152906001019060200180831161029457829003601f168201915b505050505081565b828054600181600116156101000203166002900490600052602060002090601f0160209004810192826102ef5760008555610335565b82601f1061030857805160ff1916838001178555610335565b82800160010185558215610335579182015b8281111561033557825182559160200191906001019061031a565b50610341929150610345565b5090565b5b80821115610341576000815560010161034656fea2646970667358221220b6af408168c8091ad332179937db04901bc66081bc3121ceec2369ea1a4d519e64736f6c63430007040033",
    "sourcePath": "d:/Solidity/inbox/contracts/Inbox.sol",
    "compiler": {
        "name": "solc",
        "version": "0.7.4+commit.3f05b770"
    },
    "functionHashes": {
        "InboxFunc(string)": "e309af5f",
        "getMessage()": "ce6d41de",
        "message()": "e21f37ce",
        "setMessage(string)": "368b8772"
    },
    "gasEstimates": {
        "creation": {
            "codeDepositCost": "182400",
            "executionCost": "226",
            "totalCost": "182626"
        },
        "external": {
            "InboxFunc(string)": "infinite",
            "getMessage()": "infinite",
            "message()": "infinite",
            "setMessage(string)": "infinite"
        }
    }
}